{
  "contractName": "CampaignFactory",
  "abi": [
    {
      "constant": true,
      "inputs": [
        {
          "name": "",
          "type": "uint256"
        }
      ],
      "name": "deployedCampaigns",
      "outputs": [
        {
          "name": "",
          "type": "address"
        }
      ],
      "payable": false,
      "stateMutability": "view",
      "type": "function"
    },
    {
      "constant": false,
      "inputs": [
        {
          "name": "minimum",
          "type": "uint256"
        },
        {
          "name": "forWho",
          "type": "address"
        }
      ],
      "name": "createCampaign",
      "outputs": [],
      "payable": false,
      "stateMutability": "nonpayable",
      "type": "function"
    },
    {
      "constant": true,
      "inputs": [],
      "name": "getDeployedCampaigns",
      "outputs": [
        {
          "name": "",
          "type": "address[]"
        }
      ],
      "payable": false,
      "stateMutability": "view",
      "type": "function"
    },
    {
      "constant": true,
      "inputs": [
        {
          "name": "b",
          "type": "address"
        }
      ],
      "name": "getMyCampaigns",
      "outputs": [
        {
          "name": "",
          "type": "address[]"
        }
      ],
      "payable": false,
      "stateMutability": "view",
      "type": "function"
    }
  ],
  "bytecode": "0x608060405234801561001057600080fd5b506116db806100206000396000f300608060405260043610610062576000357c0100000000000000000000000000000000000000000000000000000000900463ffffffff16806332ba9cce14610067578063339d50a5146100b45780634acb9d4f1461012157806364c909661461018d575b600080fd5b34801561007357600080fd5b506100b260048036038101908080359060200190929190803573ffffffffffffffffffffffffffffffffffffffff169060200190929190505050610225565b005b3480156100c057600080fd5b506100df600480360381019080803590602001909291905050506103cf565b604051808273ffffffffffffffffffffffffffffffffffffffff1673ffffffffffffffffffffffffffffffffffffffff16815260200191505060405180910390f35b34801561012d57600080fd5b5061013661040d565b6040518080602001828103825283818151815260200191508051906020019060200280838360005b8381101561017957808201518184015260208101905061015e565b505050509050019250505060405180910390f35b34801561019957600080fd5b506101ce600480360381019080803573ffffffffffffffffffffffffffffffffffffffff16906020019092919050505061049b565b6040518080602001828103825283818151815260200191508051906020019060200280838360005b838110156102115780820151818401526020810190506101f6565b505050509050019250505060405180910390f35b6000823383610232610568565b808481526020018373ffffffffffffffffffffffffffffffffffffffff1673ffffffffffffffffffffffffffffffffffffffff1681526020018273ffffffffffffffffffffffffffffffffffffffff1673ffffffffffffffffffffffffffffffffffffffff1681526020019350505050604051809103906000f0801580156102be573d6000803e3d6000fd5b50905060008190806001815401808255809150509060018203906000526020600020016000909192909190916101000a81548173ffffffffffffffffffffffffffffffffffffffff021916908373ffffffffffffffffffffffffffffffffffffffff16021790555050600160008373ffffffffffffffffffffffffffffffffffffffff1673ffffffffffffffffffffffffffffffffffffffff1681526020019081526020016000208190806001815401808255809150509060018203906000526020600020016000909192909190916101000a81548173ffffffffffffffffffffffffffffffffffffffff021916908373ffffffffffffffffffffffffffffffffffffffff16021790555050505050565b6000818154811015156103de57fe5b906000526020600020016000915054906101000a900473ffffffffffffffffffffffffffffffffffffffff1681565b6060600080548060200260200160405190810160405280929190818152602001828054801561049157602002820191906000526020600020905b8160009054906101000a900473ffffffffffffffffffffffffffffffffffffffff1673ffffffffffffffffffffffffffffffffffffffff1681526020019060010190808311610447575b5050505050905090565b6060600160008373ffffffffffffffffffffffffffffffffffffffff1673ffffffffffffffffffffffffffffffffffffffff16815260200190815260200160002080548060200260200160405190810160405280929190818152602001828054801561055c57602002820191906000526020600020905b8160009054906101000a900473ffffffffffffffffffffffffffffffffffffffff1673ffffffffffffffffffffffffffffffffffffffff1681526020019060010190808311610512575b50505050509050919050565b60405161113780610579833901905600608060405234801561001057600080fd5b5060405160608061113783398101806040528101908080519060200190929190805190602001909291908051906020019092919050505081600160006101000a81548173ffffffffffffffffffffffffffffffffffffffff021916908373ffffffffffffffffffffffffffffffffffffffff1602179055508260028190555080600560006101000a81548173ffffffffffffffffffffffffffffffffffffffff021916908373ffffffffffffffffffffffffffffffffffffffff160217905550505050611055806100e26000396000f3006080604052600436106100d0576000357c0100000000000000000000000000000000000000000000000000000000900463ffffffff16806303441006146100d55780630a144391146101025780633410452a1461015d57806338af3eed146101885780634051ddac146101df578063481c6a75146102855780634f995d08146102dc57806381d12c581461039057806382fde093146104825780638a9cfd55146104ad578063937e09b1146105405780639e7a13ad1461056b578063d7bb99ba146105df578063d7d1bbdb146105e9575b600080fd5b3480156100e157600080fd5b5061010060048036038101908080359060200190929190505050610616565b005b34801561010e57600080fd5b50610143600480360381019080803573ffffffffffffffffffffffffffffffffffffffff169060200190929190505050610761565b604051808215151515815260200191505060405180910390f35b34801561016957600080fd5b50610172610781565b6040518082815260200191505060405180910390f35b34801561019457600080fd5b5061019d61078d565b604051808273ffffffffffffffffffffffffffffffffffffffff1673ffffffffffffffffffffffffffffffffffffffff16815260200191505060405180910390f35b3480156101eb57600080fd5b506101f46107b3565b604051808781526020018681526020018581526020018481526020018373ffffffffffffffffffffffffffffffffffffffff1673ffffffffffffffffffffffffffffffffffffffff1681526020018273ffffffffffffffffffffffffffffffffffffffff1673ffffffffffffffffffffffffffffffffffffffff168152602001965050505050505060405180910390f35b34801561029157600080fd5b5061029a61083a565b604051808273ffffffffffffffffffffffffffffffffffffffff1673ffffffffffffffffffffffffffffffffffffffff16815260200191505060405180910390f35b3480156102e857600080fd5b506102f1610860565b604051808060200180602001838103835285818151815260200191508051906020019060200280838360005b8381101561033857808201518184015260208101905061031d565b50505050905001838103825284818151815260200191508051906020019060200280838360005b8381101561037a57808201518184015260208101905061035f565b5050505090500194505050505060405180910390f35b34801561039c57600080fd5b506103bb600480360381019080803590602001909291905050506109b3565b60405180806020018681526020018573ffffffffffffffffffffffffffffffffffffffff1673ffffffffffffffffffffffffffffffffffffffff16815260200184151515158152602001838152602001828103825287818151815260200191508051906020019080838360005b83811015610443578082015181840152602081019050610428565b50505050905090810190601f1680156104705780820380516001836020036101000a031916815260200191505b50965050505050505060405180910390f35b34801561048e57600080fd5b50610497610abd565b6040518082815260200191505060405180910390f35b3480156104b957600080fd5b5061053e600480360381019080803590602001908201803590602001908080601f016020809104026020016040519081016040528093929190818152602001838380828437820191505050505050919291929080359060200190929190803573ffffffffffffffffffffffffffffffffffffffff169060200190929190505050610ac3565b005b34801561054c57600080fd5b50610555610c3a565b6040518082815260200191505060405180910390f35b34801561057757600080fd5b5061059660048036038101908080359060200190929190505050610c40565b604051808373ffffffffffffffffffffffffffffffffffffffff1673ffffffffffffffffffffffffffffffffffffffff1681526020018281526020019250505060405180910390f35b6105e7610c93565b005b3480156105f557600080fd5b5061061460048036038101908080359060200190929190505050610dc7565b005b6000600160009054906101000a900473ffffffffffffffffffffffffffffffffffffffff1673ffffffffffffffffffffffffffffffffffffffff163373ffffffffffffffffffffffffffffffffffffffff1614151561067457600080fd5b60008281548110151561068357fe5b906000526020600020906005020190508060020160149054906101000a900460ff161515156106b157600080fd5b60026004548115156106bf57fe5b0481600301541115156106d157600080fd5b8060020160009054906101000a900473ffffffffffffffffffffffffffffffffffffffff1673ffffffffffffffffffffffffffffffffffffffff166108fc82600101549081150290604051600060405180830381858888f1935050505015801561073f573d6000803e3d6000fd5b5060018160020160146101000a81548160ff0219169083151502179055505050565b60036020528060005260406000206000915054906101000a900460ff1681565b60008080549050905090565b600560009054906101000a900473ffffffffffffffffffffffffffffffffffffffff1681565b6000806000806000806002543073ffffffffffffffffffffffffffffffffffffffff1631600080549050600454600160009054906101000a900473ffffffffffffffffffffffffffffffffffffffff16600560009054906101000a900473ffffffffffffffffffffffffffffffffffffffff16955095509550955095509550909192939495565b600160009054906101000a900473ffffffffffffffffffffffffffffffffffffffff1681565b60608060608060008060068054905060405190808252806020026020018201604052801561089d5781602001602082028038833980820191505090505b5093506006805490506040519080825280602002602001820160405280156108d45781602001602082028038833980820191505090505b509250600091505b6006805490508210156109a5576006828154811015156108f857fe5b906000526020600020906002020190508060000160009054906101000a900473ffffffffffffffffffffffffffffffffffffffff16848381518110151561093b57fe5b9060200190602002019073ffffffffffffffffffffffffffffffffffffffff16908173ffffffffffffffffffffffffffffffffffffffff16815250508060010154838381518110151561098a57fe5b906020019060200201818152505081806001019250506108dc565b838395509550505050509091565b6000818154811015156109c257fe5b9060005260206000209060050201600091509050806000018054600181600116156101000203166002900480601f016020809104026020016040519081016040528092919081815260200182805460018160011615610100020316600290048015610a6e5780601f10610a4357610100808354040283529160200191610a6e565b820191906000526020600020905b815481529060010190602001808311610a5157829003601f168201915b5050505050908060010154908060020160009054906101000a900473ffffffffffffffffffffffffffffffffffffffff16908060020160149054906101000a900460ff16908060030154905085565b60045481565b610acb610f0c565b600160009054906101000a900473ffffffffffffffffffffffffffffffffffffffff1673ffffffffffffffffffffffffffffffffffffffff163373ffffffffffffffffffffffffffffffffffffffff16141515610b2757600080fd5b60a0604051908101604052808581526020018481526020018373ffffffffffffffffffffffffffffffffffffffff16815260200160001515815260200160008152509050600081908060018154018082558091505090600182039060005260206000209060050201600090919290919091506000820151816000019080519060200190610bb5929190610f54565b506020820151816001015560408201518160020160006101000a81548173ffffffffffffffffffffffffffffffffffffffff021916908373ffffffffffffffffffffffffffffffffffffffff16021790555060608201518160020160146101000a81548160ff0219169083151502179055506080820151816003015550505050505050565b60025481565b600681815481101515610c4f57fe5b90600052602060002090600202016000915090508060000160009054906101000a900473ffffffffffffffffffffffffffffffffffffffff16908060010154905082565b610c9b610fd4565b60025434111515610cab57600080fd5b6001600360003373ffffffffffffffffffffffffffffffffffffffff1673ffffffffffffffffffffffffffffffffffffffff16815260200190815260200160002060006101000a81548160ff02191690831515021790555060046000815480929190600101919050555060408051908101604052803373ffffffffffffffffffffffffffffffffffffffff1681526020013481525090506006819080600181540180825580915050906001820390600052602060002090600202016000909192909190915060008201518160000160006101000a81548173ffffffffffffffffffffffffffffffffffffffff021916908373ffffffffffffffffffffffffffffffffffffffff1602179055506020820151816001015550505050565b60008082815481101515610dd757fe5b90600052602060002090600502019050600360003373ffffffffffffffffffffffffffffffffffffffff1673ffffffffffffffffffffffffffffffffffffffff16815260200190815260200160002060009054906101000a900460ff161515610e3f57600080fd5b8060040160003373ffffffffffffffffffffffffffffffffffffffff1673ffffffffffffffffffffffffffffffffffffffff16815260200190815260200160002060009054906101000a900460ff16151515610e9a57600080fd5b60018160040160003373ffffffffffffffffffffffffffffffffffffffff1673ffffffffffffffffffffffffffffffffffffffff16815260200190815260200160002060006101000a81548160ff02191690831515021790555080600301600081548092919060010191905055505050565b60a0604051908101604052806060815260200160008152602001600073ffffffffffffffffffffffffffffffffffffffff168152602001600015158152602001600081525090565b828054600181600116156101000203166002900490600052602060002090601f016020900481019282601f10610f9557805160ff1916838001178555610fc3565b82800160010185558215610fc3579182015b82811115610fc2578251825591602001919060010190610fa7565b5b509050610fd09190611004565b5090565b6040805190810160405280600073ffffffffffffffffffffffffffffffffffffffff168152602001600081525090565b61102691905b8082111561102257600081600090555060010161100a565b5090565b905600a165627a7a72305820fe40ebbdf6444242b2f562895ab0976bc945e24ce1d66fd15fa55da2a8b3a4ee0029a165627a7a72305820eddf2a7e07a4bd6a65fd5c01cd2a8b095d561b6a5f18a9acdf05c472697a74a80029",
  "source": "pragma solidity ^0.4.17;\r\n\r\ncontract CampaignFactory {\r\n    address[] public deployedCampaigns;\r\n    mapping(address=> address[]) deployed;\r\n    \r\n    \r\n    function createCampaign(uint minimum , address forWho) public {\r\n    address newCampaign = new Campaign(minimum , msg.sender , forWho);\r\n    deployedCampaigns.push(newCampaign);\r\n    deployed[forWho].push(newCampaign);\r\n    \r\n}  \r\n\r\nfunction getDeployedCampaigns() public view returns (address[])\r\n{\r\n    return deployedCampaigns;\r\n}\r\nfunction getMyCampaigns(address b) public view returns (address[])\r\n{\r\n    return deployed[b];\r\n}\r\n\r\n\r\n}\r\n\r\ncontract Campaign {\r\n    struct Request {\r\n        string description;\r\n        uint value;\r\n        address recipient;\r\n        bool complete;\r\n        uint approvalCount;\r\n        mapping(address=> bool) approvals;\r\n    }\r\n    \r\n    \r\n    Request[] public requests;\r\n    address public manager;\r\n    uint public minimumContribution;\r\n    mapping(address => bool) public approvers;\r\n    uint public approversCount;\r\n    address public beneficiary;\r\n    \r\n    modifier restricted() {\r\n        require(msg.sender == manager);\r\n        _;\r\n    }\r\n    \r\n    constructor(uint minimum , address creater , address forWho) public\r\n    {\r\n        manager = creater;\r\n        minimumContribution = minimum;\r\n        beneficiary= forWho;\r\n        \r\n    }\r\n    function contribute() public payable\r\n    {\r\n        require(msg.value > minimumContribution);\r\n        approvers[msg.sender] = true;\r\n        approversCount++;\r\n         Person memory newPerson = Person({\r\n           addr: msg.sender,\r\n           funds: msg.value\r\n         });\r\n         \r\n         people.push(newPerson);\r\n        \r\n    }\r\n    function createRequest(string description , uint value , address recipient) \r\n    public restricted {\r\n         Request memory newRequest = Request({\r\n            description: description,\r\n            value: value,\r\n            recipient: recipient,\r\n            complete: false,\r\n            approvalCount: 0\r\n         });\r\n         \r\n         requests.push(newRequest);\r\n        \r\n    }\r\n    function approveRequest(uint index) public\r\n    {   Request storage request = requests[index];\r\n        \r\n        require(approvers[msg.sender]);\r\n        require(!request.approvals[msg.sender]);\r\n        \r\n        request.approvals[msg.sender]= true;\r\n        request.approvalCount++;\r\n        \r\n    }\r\n    function finalizeRequest(uint index) public restricted\r\n    {   Request storage request = requests[index];  \r\n        require(!request.complete);\r\n        require(request.approvalCount > (approversCount/2));\r\n        request.recipient.transfer(request.value);\r\n        request.complete = true;\r\n        \r\n    }\r\n    function getSummary() public view returns (uint, uint, uint, uint, address, address)\r\n    {\r\n        return (minimumContribution,\r\n        address(this).balance,\r\n        requests.length,\r\n        approversCount,\r\n        manager,\r\n        beneficiary);\r\n    }\r\n   \r\n    function getRequestsCount() public view returns (uint)\r\n    {\r\n        return requests.length;\r\n    }\r\n    struct Person {\r\n        address addr;\r\n        uint funds;\r\n    }\r\n    \r\n    Person[] public people;\r\n    \r\n    function getPeople()\r\n        public view\r\n        returns (address[], uint[])\r\n    {\r\n        address[] memory addrs = new address[](people.length);\r\n        uint[]    memory funds = new uint[](people.length);\r\n        \r\n        for (uint i = 0; i < people.length; i++) {\r\n            Person storage person = people[i];\r\n            addrs[i] = person.addr;\r\n            funds[i] = person.funds;\r\n        }\r\n        \r\n        return (addrs, funds);\r\n    }\r\n   \r\n}\r\n  ",
  "sourcePath": "C:\\Users\\Ajita.Pancholi\\Desktop\\Projects\\assignment1\\truffle\\contracts\\CampaignFactory.sol",
  "compiler": {
    "name": "solc",
    "version": "0.4.24+commit.e67f0147.Emscripten.clang"
  },
  "schemaVersion": "2.0.1",
  "updatedAt": "2018-11-12T09:04:20.012Z"
}