{
  "contractName": "Lottery",
  "abi": [
    {
      "constant": true,
      "inputs": [],
      "name": "manager",
      "outputs": [
        {
          "name": "",
          "type": "address"
        }
      ],
      "payable": false,
      "stateMutability": "view",
      "type": "function"
    },
    {
      "constant": true,
      "inputs": [
        {
          "name": "",
          "type": "uint256"
        }
      ],
      "name": "players",
      "outputs": [
        {
          "name": "",
          "type": "address"
        }
      ],
      "payable": false,
      "stateMutability": "view",
      "type": "function"
    },
    {
      "inputs": [],
      "payable": false,
      "stateMutability": "nonpayable",
      "type": "constructor"
    },
    {
      "constant": false,
      "inputs": [],
      "name": "enter",
      "outputs": [],
      "payable": true,
      "stateMutability": "payable",
      "type": "function"
    },
    {
      "constant": false,
      "inputs": [],
      "name": "pickwinner",
      "outputs": [],
      "payable": false,
      "stateMutability": "nonpayable",
      "type": "function"
    },
    {
      "constant": true,
      "inputs": [],
      "name": "getPlayers",
      "outputs": [
        {
          "name": "",
          "type": "address[]"
        }
      ],
      "payable": false,
      "stateMutability": "view",
      "type": "function"
    }
  ],
  "bytecode": "0x608060405234801561001057600080fd5b50336000806101000a81548173ffffffffffffffffffffffffffffffffffffffff021916908373ffffffffffffffffffffffffffffffffffffffff160217905550610680806100606000396000f30060806040526004361061006d576000357c0100000000000000000000000000000000000000000000000000000000900463ffffffff168063481c6a751461007257806371b80060146100c95780638b5b9ccc146100e0578063e97dcb621461014c578063f71d96cb14610156575b600080fd5b34801561007e57600080fd5b506100876101c3565b604051808273ffffffffffffffffffffffffffffffffffffffff1673ffffffffffffffffffffffffffffffffffffffff16815260200191505060405180910390f35b3480156100d557600080fd5b506100de6101e8565b005b3480156100ec57600080fd5b506100f5610340565b6040518080602001828103825283818151815260200191508051906020019060200280838360005b8381101561013857808201518184015260208101905061011d565b505050509050019250505060405180910390f35b6101546103ce565b005b34801561016257600080fd5b506101816004803603810190808035906020019092919050505061044b565b604051808273ffffffffffffffffffffffffffffffffffffffff1673ffffffffffffffffffffffffffffffffffffffff16815260200191505060405180910390f35b6000809054906101000a900473ffffffffffffffffffffffffffffffffffffffff1681565b60008060009054906101000a900473ffffffffffffffffffffffffffffffffffffffff1673ffffffffffffffffffffffffffffffffffffffff163373ffffffffffffffffffffffffffffffffffffffff1614151561024557600080fd5b600180549050610253610489565b81151561025c57fe5b06905060018181548110151561026e57fe5b9060005260206000200160009054906101000a900473ffffffffffffffffffffffffffffffffffffffff1673ffffffffffffffffffffffffffffffffffffffff166108fc3073ffffffffffffffffffffffffffffffffffffffff16319081150290604051600060405180830381858888f193505050501580156102f5573d6000803e3d6000fd5b5060006040519080825280602002602001820160405280156103265781602001602082028038833980820191505090505b506001908051906020019061033c929190610587565b5050565b606060018054806020026020016040519081016040528092919081815260200182805480156103c457602002820191906000526020600020905b8160009054906101000a900473ffffffffffffffffffffffffffffffffffffffff1673ffffffffffffffffffffffffffffffffffffffff168152602001906001019080831161037a575b5050505050905090565b662386f26fc10000341115156103e357600080fd5b60013390806001815401808255809150509060018203906000526020600020016000909192909190916101000a81548173ffffffffffffffffffffffffffffffffffffffff021916908373ffffffffffffffffffffffffffffffffffffffff16021790555050565b60018181548110151561045a57fe5b906000526020600020016000915054906101000a900473ffffffffffffffffffffffffffffffffffffffff1681565b60004442600160405160200180848152602001838152602001828054801561050657602002820191906000526020600020905b8160009054906101000a900473ffffffffffffffffffffffffffffffffffffffff1673ffffffffffffffffffffffffffffffffffffffff16815260200190600101908083116104bc575b505093505050506040516020818303038152906040526040518082805190602001908083835b602083101515610551578051825260208201915060208101905060208303925061052c565b6001836020036101000a038019825116818451168082178552505050505050905001915050604051809103902060019004905090565b828054828255906000526020600020908101928215610600579160200282015b828111156105ff5782518260006101000a81548173ffffffffffffffffffffffffffffffffffffffff021916908373ffffffffffffffffffffffffffffffffffffffff160217905550916020019190600101906105a7565b5b50905061060d9190610611565b5090565b61065191905b8082111561064d57600081816101000a81549073ffffffffffffffffffffffffffffffffffffffff021916905550600101610617565b5090565b905600a165627a7a7230582059d2dd7e55cd5945acdcb1ae1633d2098cb7d9017d5cf38f7e82b537cf8730820029",
  "source": "pragma solidity ^0.4.17;\r\ncontract Lottery\r\n{\r\naddress public manager;\r\naddress[] public players;\r\n\r\nconstructor() public {\r\nmanager = msg.sender;\r\n}\r\n\r\nfunction enter() public payable{\r\n  require(msg.value > .01 ether);\r\nplayers.push(msg.sender);\r\n\r\n\r\n}\r\n\r\nfunction random() private view returns (uint)\r\n{\r\n    return uint(keccak256(abi.encodePacked(block.difficulty ,now, players)));\r\n}\r\nfunction pickwinner() public restricted\r\n{  // require(msg.sender == manager);\r\n    uint index = random() % players.length;\r\n    players[index].transfer(address(this).balance);\r\n    players = new address[](0);\r\n}\r\nfunction getPlayers() public view returns (address[]) {\r\n    return players;\r\n    \r\n}\r\nmodifier restricted() \r\n{\r\n    require(msg.sender == manager);\r\n    _;\r\n}\r\n\r\n}",
  "sourcePath": "C:\\Users\\Ajita.Pancholi\\Desktop\\Projects\\assignment1\\truffle\\contracts\\lottery.sol",
  "compiler": {
    "name": "solc",
    "version": "0.4.24+commit.e67f0147.Emscripten.clang"
  },
  "schemaVersion": "2.0.1",
  "updatedAt": "2018-11-02T08:31:33.811Z"
}